{
  "contractName": "PassChainContract",
  "abi": [
    {
      "constant": false,
      "inputs": [
        {
          "internalType": "string",
          "name": "_uid",
          "type": "string"
        },
        {
          "internalType": "string",
          "name": "_doorPIN",
          "type": "string"
        },
        {
          "internalType": "string",
          "name": "_timeStamp",
          "type": "string"
        },
        {
          "internalType": "string",
          "name": "_coordinatesGPS",
          "type": "string"
        }
      ],
      "name": "set",
      "outputs": [],
      "payable": false,
      "stateMutability": "nonpayable",
      "type": "function"
    },
    {
      "constant": true,
      "inputs": [],
      "name": "getUid",
      "outputs": [
        {
          "internalType": "string",
          "name": "",
          "type": "string"
        }
      ],
      "payable": false,
      "stateMutability": "view",
      "type": "function"
    }
  ],
  "bytecode": "0x608060405234801561001057600080fd5b5061051c806100206000396000f3fe608060405234801561001057600080fd5b50600436106100365760003560e01c80633d0e6f191461003b578063f60886b5146100be575b600080fd5b61004361033e565b6040518080602001828103825283818151815260200191508051906020019080838360005b83811015610083578082015181840152602081019050610068565b50505050905090810190601f1680156100b05780820380516001836020036101000a031916815260200191505b509250505060405180910390f35b61033c600480360360808110156100d457600080fd5b81019080803590602001906401000000008111156100f157600080fd5b82018360208201111561010357600080fd5b8035906020019184600183028401116401000000008311171561012557600080fd5b91908080601f016020809104026020016040519081016040528093929190818152602001838380828437600081840152601f19601f8201169050808301925050505050505091929192908035906020019064010000000081111561018857600080fd5b82018360208201111561019a57600080fd5b803590602001918460018302840111640100000000831117156101bc57600080fd5b91908080601f016020809104026020016040519081016040528093929190818152602001838380828437600081840152601f19601f8201169050808301925050505050505091929192908035906020019064010000000081111561021f57600080fd5b82018360208201111561023157600080fd5b8035906020019184600183028401116401000000008311171561025357600080fd5b91908080601f016020809104026020016040519081016040528093929190818152602001838380828437600081840152601f19601f820116905080830192505050505050509192919290803590602001906401000000008111156102b657600080fd5b8201836020820111156102c857600080fd5b803590602001918460018302840111640100000000831117156102ea57600080fd5b91908080601f016020809104026020016040519081016040528093929190818152602001838380828437600081840152601f19601f8201169050808301925050505050505091929192905050506103e0565b005b606060008054600181600116156101000203166002900480601f0160208091040260200160405190810160405280929190818152602001828054600181600116156101000203166002900480156103d65780601f106103ab576101008083540402835291602001916103d6565b820191906000526020600020905b8154815290600101906020018083116103b957829003601f168201915b5050505050905090565b83600090805190602001906103f6929190610442565b50826001908051906020019061040d929190610442565b508160029080519060200190610424929190610442565b50806003908051906020019061043b929190610442565b5050505050565b828054600181600116156101000203166002900490600052602060002090601f016020900481019282601f1061048357805160ff19168380011785556104b1565b828001600101855582156104b1579182015b828111156104b0578251825591602001919060010190610495565b5b5090506104be91906104c2565b5090565b6104e491905b808211156104e05760008160009055506001016104c8565b5090565b9056fea265627a7a72315820425bbf5b651d7cd247aca24cef8fd86ac52fda0901fb23a6ee09ebad53cc4f1a64736f6c63430005100032",
  "source": "pragma solidity ^0.5.16;\n\ncontract PassChainContract {\n    string uid;\n    string doorPIN;\n    string timeStamp;\n    string coordinatesGPS;\n\n    function set(string memory _uid, string memory _doorPIN, string memory _timeStamp, string memory _coordinatesGPS) public {\n    \tuid = _uid;\n    \tdoorPIN = _doorPIN;\n    \ttimeStamp = _timeStamp;\n    \tcoordinatesGPS = _coordinatesGPS;\n    }\n\n    function getUid() public view returns (string memory) {\n        return uid;\n    }\n}\n",
  "sourcePath": "/home/fabrizio/WorkStation/Projects/PassChain/Ethereum/contracts/passchain.sol",
  "compiler": {
    "name": "solc",
    "version": "0.5.16+commit.9c3226ce.Emscripten.clang"
  },
  "schemaVersion": "3.0.23",
  "updatedAt": "2020-02-01T13:58:04.141Z",
  "devdoc": {
    "methods": {}
  },
  "userdoc": {
    "methods": {}
  }
}